:020000040800F2
:100000007006002089010008F70A0008650A000848
:10001000F50A00088F020008530B000800000000DA
:10002000000000000000000000000000FB0A0008C3
:100030009102000800000000F90A0008FD0A00080B
:10004000A3010008A3010008A3010008A301000800
:10005000A3010008A3010008A3010008A3010008F0
:10006000A3010008A3010008A3010008A3010008E0
:10007000A3010008A3010008A3010008A3010008D0
:10008000A3010008A3010008A3010008A3010008C0
:10009000A3010008A3010008A3010008A3010008B0
:1000A000A3010008A3010008A3010008A3010008A0
:1000B000A3010008A301000800000000A30100083C
:1000C000A30100080000000000000000A3010008D8
:1000D00000000000A3010008A301000800000000C8
:1000E000A3010008A3010008A301000800F002F822
:1000F00000F03AF80AA090E8000C82448344AAF188
:100100000107DA4501D100F02FF8AFF2090EBAE885
:100110000F0013F0010F18BFFB1A43F0010318473B
:10012000B80E0000D80E0000103A24BF78C878C17D
:10013000FAD8520724BF30C830C144BF04680C60ED
:10014000704700000023002400250026103A28BF35
:1001500078C1FBD8520728BF30C148BF0B60704739
:100160001FB51FBD10B510BD00F058F81146FFF7C0
:10017000F7FF00F0D7FD00F076F803B4FFF7F2FFC9
:1001800003BC00F07DF8000009488047094800479B
:10019000FEE7FEE7FEE7FEE7FEE7FEE7FEE7FEE737
:1001A000FEE7FEE704480549054A064B7047000094
:1001B000510B0008ED0000087000002070060020C0
:1001C00070020020700200204FF0000200B51346BC
:1001D00094469646203922BFA0E80C50A0E80C5067
:1001E000B1F12001BFF4F7AF090728BFA0E80C5018
:1001F00048BF0CC05DF804EB890028BF40F8042B11
:1002000008BF704748BF20F8022B11F0804F18BF7D
:1002100000F8012B7047704770477047754600F033
:100220002BF8AE4605006946534620F00700854688
:1002300018B020B5FFF7B6FFBDE820404FF000062C
:100240004FF000074FF000084FF0000B21F00701BE
:10025000AC46ACE8C009ACE8C009ACE8C009ACE801
:10026000C0098D46704710B50446AFF300802046A4
:10027000BDE81040FFF781BF004870471000002024
:1002800001491820ABBEFEE7260002007047FEE7DA
:100290007047000070B5044600F0F4F80546601C95
:1002A00002D004480078044400F0ECF8401BA0425F
:1002B000FAD370BD000000202DE9F84FDFF89C91C3
:1002C0000024A9F1040B23460F2709F1040AABF11E
:1002D000040EBBE00125A5402A40AA4276D1DFF8F2
:1002E00080C14E68A6EB0C0866452BD00DDC032EB2
:1002F00034D005DC36B3012E19D0022E2FD11BE0ED
:10030000112E16D0122E2AD119E0B8F5881F19D057
:1003100006DCB8F5803F15D0B8F5801F1FD111E07D
:10032000B8F5001F0ED0B8F5041F18D10AE0CB684D
:1003300015E0CB681B1D12E0CB6808330FE0CB68DB
:100340000C330CE08B682BB1012B4FF0080303D06A
:10035000456104E0042302E0056100E00023FF2A78
:1003600001D8064601E000F104064FEA840501D9F0
:10037000A5F12005D6F8008007FA05FC28EA0C084C
:1003800003FA05F548EA0508C6F800804D68ED0057
:100390005BD5344DAE6946F00106AE61AD6924F01F
:1003A000030605F0010500952F4D06EB050CDCF862
:1003B0000850A607360F07FA06F825EA0805DFF801
:1003C000AC80404503D14FF0000810E03DE0DFF87D
:1003D000A080404502D14FF0010808E0DFF894808A
:1003E000404502D14FF0020801E04FF0030808FA3F
:1003F00006F848EA0508CCF808804D68D9F800608E
:10040000ED024D4601D5164300E096432E604D683F
:10041000DAF80060AD02554601D5164300E0964378
:100420002E604D68DBF80060AD035D4601D51643D4
:1004300000E096432E604D68DEF80060ED037546DF
:1004400001D5164300E096432E60641C0A6832FA18
:1004500004F57FF43FAFBDE8F88F000008040140C9
:10046000000011100010024000000140000801408F
:10047000000C0140001001400AB1016170470904FD
:10048000FBE7000001488068704700000000002082
:1004900002488168027811448160704700000020A2
:1004A000074810B5016841F010010160032000F019
:1004B00067F80F2000F006F800F024F8002010BDC7
:1004C0000020024070B50D4D04464FF47A71287833
:1004D000B1FBF0F00A490968B1FBF0F000F0AEFAA8
:1004E00048B9102C07D200222146501E00F028F8EF
:1004F00000206C6070BD012070BD00000000002075
:100500000C0000200C4808B5816941F001018161AF
:10051000816901F001010091C16941F08051C1611F
:10052000C06900F0805000900448416821F0E0610B
:1005300041F00071416008BD001002400000014020
:10054000F0B40E4B1B680C46C3F30223C3F107053E
:10055000042D00D90425191D072901D2002300E02C
:10056000DB1E012606FA05F1491E214099409E40F6
:10057000761E16403143F0BC00F0ECBA0CED00E002
:10058000064900F0070208684FF6FF03184040EAEA
:100590000220034A10430860704700000CED00E0A1
:1005A0000000FA052DE9F0470F46050061D0434EE3
:1005B000306800F00700B84209D2306820F0070028
:1005C00038433060306800F00700B84251D12868E5
:1005D0003B4C810712D5400703D5606840F4E060CA
:1005E00060602878000703D5606840F46050606060
:1005F0006068A96820F0F000084360602878C007B0
:1006000028D06868012810D02168022810D08907F6
:1006100000292EDA616821F0030101436160FFF7D0
:1006200031FF804641F288390DE021688903EFE708
:100630008901EDE7FFF726FFA0EB0801494502D944
:100640000320BDE8F0876068696800F00C00B0EB3B
:10065000810FEFD1306800F00700B8420BD9306845
:1006600020F0070038433060306800F00700B842DF
:1006700001D00120E5E72878400705D56068E968E2
:1006800020F4E060084360602878000706D56068C1
:10069000296920F4605040EAC100606000F018F859
:1006A0006168084AC1F30311515CC84006490860FB
:1006B00006480068FFF706FF0020C2E7002002405E
:1006C00000100240C60F00080C00002004000020AB
:1006D0000E4A51680E4801F00C03042B11D0082B70
:1006E0000FD10C48C1F38343C903C05C0AD55168DC
:1006F000084AC1F34041921E515C054A5043B0FB89
:10070000F1F0704704494843704700000010024070
:1007100000127A00B60F000800093D002DE9F84FDD
:10072000040070D02078C04DC00749D06868C0F37D
:100730008100012807D06868C0F38100022809D130
:100740006868C00306D52868800339D5606800282A
:10075000E7D035E06068B0F5803F0BD010B1B0F560
:10076000A02F11D0286820F480302860286820F459
:10077000802002E0286840F480302860606890B1F2
:10078000FFF780FE06460AE0286840F480202860D3
:10079000F0E700BFFFF776FE801B642873D8286857
:1007A0008003F7D50CE0FFF76DFE064605E000BFBD
:1007B000FFF768FE801B6428F0D828688003F7D410
:1007C00020789A4E80074FF001094FF0000839D584
:1007D000686810F00C0F07D06868C0F38100022829
:1007E00009D16868C00306D42868800714D5206939
:1007F000012808D110E02069B0B1C6F80090FFF7D9
:1008000041FE074605E00AE1FFF73CFEC01B022857
:10081000C4D828688007F7D52868616920F0F800F7
:1008200040EAC10028600DE0C6F80080FFF72AFE0C
:10083000074604E0FFF726FEC01B022823D82868DD
:100840008007F7D4207800072CD57948A169D9B161
:10085000C0F80090FFF716FE074604E0FFF712FE0F
:10086000C01B02280FD8686A8007F7D571484FF47B
:10087000FA510068B0FBF1F0009000BF0098411EF3
:100880000091FAD20EE080E0C0F80080FFF7FAFD98
:10089000074604E0FFF7F6FDC01B022875D8686A1A
:1008A0008007F7D42078400760D5E8690027C000AA
:1008B00008D4E86940F08050E861E869012700F059
:1008C000805000905C480168C90513D401688346D4
:1008D00041F480710160FFF7D5FD824606E000BF5C
:1008E000FFF7D0FDA0EB0A0064284ED8DBF800002B
:1008F000C005F5D5E06801280AD008B1052813D055
:10090000286A20F001002862286A20F0040002E032
:10091000286A40F001002862E06841F2883B98B103
:10092000FFF7B0FD82460BE0286A40F00400286221
:10093000EEE700BFFFF7A6FDA0EB0A0159455AD824
:10094000286A8007F6D50CE0FFF79CFD824605E09B
:10095000FFF798FDA0EB0A0159454CD8286A80079B
:10096000F6D41FB1E86920F08050E861E06988B3EF
:100970006968C1F38101022944D00228C6F8608069
:1009800004D0FFF77FFD044638E034E0FFF77AFD3E
:10099000074604E0FFF776FDC01B02282BD8286825
:1009A0008001F7D4206AB0F5803F05D16868A1685E
:1009B00020F4003008436860D4E9080108436968FE
:1009C00021F4741108436860C6F86090FFF75AFD7F
:1009D000044606E025E000BFFFF754FD001B022897
:1009E00009D828688001F7D51BE000BFFFF74AFD52
:1009F000001B022802D90320BDE8F88F2868800177
:100A0000F4D40EE00128F7D06868226A00F480313F
:100A1000914204D1616A00F47010884201D0012033
:100A2000EAE70020E8E70000001002400000424230
:100A3000800442420C0000200070004010B5401EAF
:100A4000B0F1807F01D3012010BD4FF0E024606140
:100A50000F21601700F07EF80020A06107202061C0
:100A6000002010BDFEE700002DE9F04385B0002412
:100A70001D480094019402940394816941F004019B
:100A80008161816901F004010491816941F00801EB
:100A900081618069DFF8548000F0080041F23F0571
:100AA0000490002229464046FFF7E6FCDFF840901C
:100AB00043F6FF47002239464846FFF7DDFC009524
:100AC000022601250396CDE9015469464046FFF709
:100AD000F3FB00970396CDE9015469464846FFF7BA
:100AE000EBFB05B0BDE8F0830010024000080140B8
:100AF000000C0140FEE7FEE770477047FFF7C8BCF7
:100B000010B590B028216846FFF75EFB14210AA8B3
:100B1000FFF75AFB022000900120049010200024CF
:100B2000059007946846FFF7F9FD08B172B6FEE735
:100B30000F20CDE90A040C940D9400210AA80E940C
:100B4000FFF730FD002801D072B6FEE710B010BDEF
:100B50007047FEE70907090E002804DB00F1E020DA
:100B600080F80014704700F00F0000F1E02080F8DA
:100B7000141D704710B56A4C092875D2DFE800F0E3
:100B80000520283E63758B92AD000022012120468E
:100B9000FFF772FC002202212046FFF76DFC0022C5
:100BA00004212046FFF768FC002208212046FFF7B9
:100BB00063FC002210212046FFF75EFC002201E0CA
:100BC000012270E020212046FFF756FC012234E08C
:100BD000002201212046FFF74FFC0022022120467F
:100BE000FFF74AFC012204212046FFF745FC0022C2
:100BF00008212046FFF740FC002214E000220121DA
:100C00002046FFF739FC002202212046FFF734FC82
:100C1000002204212046FFF72FFC00220821204655
:100C2000FFF72AFC012210212046FFF725FC0122B4
:100C300020212046FFF720FC00222046BDE810407E
:100C40004021FFF719BC012211462046FFF714FC92
:100C5000002202212046FFF70FFC0022042120463B
:100C6000FFF70AFC012210E052E000220121204699
:100C7000FFF702FC012202212046FFF7FDFB0022C4
:100C800004212046FFF7F8FB002208212046FFF749
:100C9000F3FB012236E0002201212046FFF7ECFBA6
:100CA000012220E0002201212046FFF7E5FB00227F
:100CB00002212046FFF7E0FB002204212046FFF737
:100CC000DBFB012208212046FFF7D6FB0122102181
:100CD0002046FFF7D1FB012274E7002201212046C4
:100CE000FFF7CAFB002202212046FFF7C5FB0022C6
:100CF00004212046FFF7C0FB002208212046FFF711
:100D0000BBFB002210212046FFF7B6FB00228FE735
:100D1000002201212046FFF7AFFB0022ABE70000D5
:100D2000000C01401FB5FFF7BBFBFFF7E9FEFFF723
:100D30009BFE16200290042000274FF01A09019014
:100D4000039032264FF0020AC8464FF0160B1524C6
:100D500019253A46012100979448FFF78DFB0022A0
:100D600002219248FFF788FB012204218F48FFF7F8
:100D700083FB012208218D48FFF77EFB0022102112
:100D80008A48FFF779FB002220218848FFF774FB8F
:100D9000AEE0864C002201212046FFF76DFB0122C8
:100DA00002212046FFF768FB002204212046FFF7BE
:100DB00063FB16204FF0010A0324029001980028DB
:100DC00014DC7A4C012211462046FFF755FB002225
:100DD00002212046FFF750FB002204212046FFF7A6
:100DE0004BFB04204FF0000A19240190B9F1000FC9
:100DF00014DC6E4C012211462046FFF73DFB002219
:100E000002212046FFF738FB002204212046FFF78D
:100E100033FB4FF01A094FF0020A1524BBF1000F03
:100E200013DC624D002208212846FFF725FB012232
:100E300010212846FFF720FB002220212846FFF73B
:100E40001BFB01274FF0150B03250398002813DC2B
:100E5000564D012208212846FFF70EFB00221021E3
:100E60002846FFF709FB002220212846FFF704FB54
:100E700000274FF0030B1925B8F1000F13DC4B4D81
:100E8000002208212846FFF7F7FA00221021284601
:100E9000FFF7F2FA012220212846FFF7EDFA022798
:100EA0004FF019081525002E22DC5FEA0A0008D051
:100EB000012809D0BAF1020F09D10298401E029010
:100EC00005E0A9F1010902E00198401E019037B147
:100ED000012F07D0022F08D1ABF1010B05E0A8F1DB
:100EE000010802E00398401E03903226641E6D1E26
:100EF000009830B1012816D0022831D0032826D11D
:100F000040E000224FF400512948FFF7B5FA0122D2
:100F100091022748FFF7B0FA0A2094FBF0F0FFF7A0
:100F200029FE012012E000224FF480612048FFF7E3
:100F3000A3FA0122D1021E48FFF79EFA0A2094FB71
:100F4000F0F100FB1140FFF715FE022000900A208F
:100F5000761EFFF79FF9029800283FF72FAF18E79A
:100F600000224FF400611248FFF786FA01221103B4
:100F70000F48FFF781FA0A2095FBF0F0FFF7FAFD22
:100F80000320E3E700224FF480510948FFF774FA89
:100F9000012251030648FFF76FFA0A2095FBF0F192
:100FA00000FB1150FFF7E6FD0020CFE700080140ED
:100FB000000C0140010202030405060708090A0BA0
:100FC0000C0D0E0F101000000000000000000102C8
:100FD0000304060708090000F80F000800000020BD
:100FE0001000000028010008081000081000002070
:100FF000600600004401000801000000100000002D
:081000000000000000127A005C
:04000005080000ED02
:00000001FF
